:020000040800F2
:10000000604700200D0300088B190008C117000885
:100010008919000867050008B11D000800000000EC
:100020000000000000000000000000004D02000879
:100030006905000800000000A9020008B5190008C1
:1000400027030008270300082703000827030008E8
:1000500027030008270300082703000827030008D8
:1000600027030008270300082703000827030008C8
:1000700027030008270300082703000827030008B8
:1000800027030008270300082703000827030008A8
:100090002703000827030008270300082703000898
:1000A00027030008911A0008270300082703000807
:1000B0002703000827030008270300082703000878
:1000C0002703000827030008270300082703000868
:1000D00027030008991D0008A51D00082703000834
:1000E0002703000827030008270300082703000848
:1000F0002703000827030008270300082703000838
:100100002703000827030008270300082703000827
:100110002703000827030008270300082703000817
:100120002703000827030008270300082703000807
:1001300027030008270300082703000827030008F7
:1001400027030008270300082703000827030008E7
:1001500027030008270300082703000827030008D7
:1001600027030008270300082703000827030008C7
:1001700027030008270300082703000800000000E9
:1001800027030008270300082703000827030008A7
:100190002703000827030008270300082703000897
:1001A00000000000000000002703000800F002F833
:1001B00000F03CF80AA090E8000C82448344AAF1C5
:1001C0000107DA4501D100F031F8AFF2090EBAE8C3
:1001D0000F0013F0010F18BFFB1A43F0010318477B
:1001E000BC270000DC270000103A24BF78C878C183
:1001F000FAD8520724BF30C830C144BF04680C602D
:10020000704700000023002400250026103A28BF74
:1002100078C1FBD8520728BF30C148BF0B60704778
:100220001FB502F043FB1FBD10B510BD00F066F90D
:100230001146FFF7F5FF01F0CCFD00F084F903B49F
:10024000FFF7F2FF03BC00F087F900002C4B1968A0
:100250000868B0E8F04F80F30988BFF36F8F4FF064
:10026000000080F311887047000000000848006813
:10027000006880F308884FF0000080F3148862B6AD
:1002800061B6BFF34F8FBFF36F8F00DF00BF00BFBA
:1002900008ED00E0DFF80C00016841F47001016036
:1002A000704700BF88ED00E0EFF30980BFF36F8F68
:1002B000134B1A681EF0100F08BF20ED108A20E9BA
:1002C000F04F106009B44FF0500080F31188BFF375
:1002D0004F8FBFF36F8F02F021F94FF0000080F3D2
:1002E000118809BC19680868B0E8F04F1EF0100FBB
:1002F00008BFB0EC108A80F30988BFF36F8F704796
:1003000028000020EFF3058070470000094880476F
:1003100009480047FEE7FEE7FEE7FEE7FEE7FEE7E7
:10032000FEE7FEE7FEE7FEE704480549054A064BFF
:1003300070470000811A0008AD01000860410020EC
:1003400060470020604300206043002053EA020C15
:1003500000F069802DE9F04B4FF00006002B1FBF25
:10036000B3FA83F503FA05F424FA05F65E4012BFEA
:100370001643B2FA82F502FA05F4C5F120051EBF54
:1003800022FA05FC44EA0C04203556EA044C4FEAF4
:10039000144418BF641C4FF000084FF0000990424D
:1003A00071EB030C39D3002919BFB1FA81F701FAB7
:1003B00007F6B0FA80F700FA07F6C7F120071EBF6C
:1003C00020FA07FC46EA0C062037B6FBF4FCA7EB44
:1003D0000507103F07F01F0BCBF120060CFA0BFBB3
:1003E0002CFA06F644BFB3460026202FA4BF5E4673
:1003F0004FF0000B5BEA060C08BF4FF0010B19EB46
:100400000B09ABFB027C48EB0608C01B06FB02CCC9
:100410000BFB03CC71EB0C01C1E70B4602464146D6
:100420004846BDE8F08B13B54FF000004FF00001D7
:10043000AFF30080BDE81C40704710B5203AC0F013
:100440000B80B1E81850203AA0E81850B1E81850D5
:10045000A0E81850BFF4F5AF5FEA027C24BFB1E812
:100460001850A0E8185044BF18C918C0BDE8104083
:100470005FEA827C24BF51F8043B40F8043B08BF8C
:100480007047D20728BF31F8023B48BF11F8012B53
:1004900028BF20F8023B48BF00F8012B70474FF0FF
:1004A000000200B5134694469646203922BFA0E8C4
:1004B0000C50A0E80C50B1F12001BFF4F7AF0907D0
:1004C00028BFA0E80C5048BF0CC05DF804EB8900C1
:1004D00028BF40F8042B08BF704748BF20F8022B04
:1004E00011F0804F18BF00F8012B7047704770471C
:1004F0007047000000487047FC4000207546FFF739
:10050000F9FFAE4605006946534620F007008546D0
:1005100018B020B5FFF708FFBDE820404FF00006F7
:100520004FF000074FF000084FF0000B21F00701DB
:10053000AC46ACE8C009ACE8C009ACE8C009ACE81E
:10054000C0098D46704710B50446AFF300802046C1
:10055000BDE81040FFF773BE01491820ABBEFEE7AF
:10056000260002007047FEE7704772B6FEE770B5DE
:10057000040003D094F8200010B104E0012070BD05
:10058000204600F081F82068016841F00101016017
:1005900000F05EFA0546052604E000F059FA401B1B
:1005A0000A2811D820684068C007F6D02068016882
:1005B00021F00201016000F04BFA05460BE000F06B
:1005C00047FA401B0A2806D9606A40F4003060628E
:1005D00084F82060D2E7206840688007EFD4207E4E
:1005E0000128206801683DD021F080010160607E13
:1005F00001282068016838D021F040010160A07E08
:1006000001282068016833D021F020010160E07EDC
:100610000128206801682ED041F010010160207F80
:1006200001282068016829D021F008010160607F5D
:1006300001282068016824D021F004010160D4E978
:1006400002010843D4E90412114308436168491EBA
:1006500008432168C86100206062012084F82000FE
:10066000002070BD41F08001C0E741F04001C5E7C6
:1006700041F02001CAE721F01001CFE741F0080165
:10068000D4E741F00401D9E7F0B587B0044614215E
:100690006846FFF704FF2E4B2E48DFF8B0E01968DC
:1006A000D4F800C02B4A0325022609271030002465
:1006B000491CF4451AD11960012907D1016841F09C
:1006C00000710160006800F000700590106840F053
:1006D000080010601068CDE9005600F00800CDE970
:1006E000047069461C48CDE902452BE0DFF86CE058
:1006F000F44529D1D0F800C04CF0806CC0F800C09F
:10070000D0F800C001290CF0806CCDF814C019603D
:1007100007D1016841F000710160006800F00070CD
:100720000590106840F002001060106802AB00F005
:10073000020005904FF44050CDE9000683E8B00078
:100740006946074800F06AF807B0F0BD0064004051
:100750001400002030380240000C024000680040C5
:10076000000402402DE9F0410446876D00F070F965
:10077000064694F835000025022806D080206065E2
:1007800084F834500120BDE8F0812068016821F030
:10079000160101602068416921F080014161206CEF
:1007A00008B9A06C20B12068016821F0080101603F
:1007B0002068016821F0010101600CE000F048F9B7
:1007C000801B052807D920206065032084F83500A8
:1007D00084F83450D7E720680068C007EED194F859
:1007E0005C103F208840B860012084F8350084F810
:1007F00034500020C7E790F83510022903D080213B
:10080000416501207047052180F8351000680168B6
:1008100021F0010101600020704700002DE9F84F30
:10082000DFF8F8A10022012403254FF00F090AF197
:10083000040BAAF1040E00BF0B6804FA02F6334061
:10084000B34270D10F7907F00307012F01D0022FB7
:1008500016D187684FEA420805FA08FC27EA0C0718
:10086000D1F80CC00CFA08FC4CEA070CC0F808C020
:100870004768B7430E79C6F3001696403E4346607C
:100880000E79F643B6070AD0C7684FEA420C05FA5C
:100890000CF6B7438E6806FA0CF63E43C6600E7936
:1008A00006F00306022E10D1D60800EB8608D8F811
:1008B000206057074FEAD76C09FA0CF7BE430F695F
:1008C00007FA0CF73743C8F8207006684FEA420C65
:1008D00005FA0CF7BE430F7907F0030707FA0CF788
:1008E000374307604E6816F4403F1CD04C4E3768C3
:1008F00047F480473760366822F0030706F48046E5
:100900000096484E07EB060CDCF8086897073F0F87
:1009100009FA07F826EA0806DFF80C81404503D1FA
:100920004FF0000841E072E0DFF80081404502D15D
:100930004FF0010839E0DFF8F880404502D14FF070
:10094000020832E0DFF8EC80404502D14FF00308A6
:100950002BE0DFF8E480404502D14FF0040824E0AA
:10096000DFF8D880404502D14FF005081DE0DFF8E0
:10097000D080404502D14FF0060816E0DFF8C48071
:10098000404502D14FF007080FE0DFF8BC8040453A
:1009900002D14FF0080808E0DFF8B080404502D1EE
:1009A0004FF0090801E04FF00A0808FA07F848EA92
:1009B0000608CCF80888DAF800605746D1F804C079
:1009C0009E435FEACC2C00D51E433E60DBF80060FE
:1009D0005F46D1F804C09E435FEA8C2C00D51E43CD
:1009E0003E60DEF800607746D1F804C09E435FEABF
:1009F0008C3C00D51E433E60084F083F3E68D1F84E
:100A000004C09E435FEACC3C00D51E433E60521CAE
:100A1000102AFFF411AFBDE8F88F0000083C014038
:100A2000443802400030014000000240000402400F
:100A300000080240000C0240001002400014024076
:100A400000180240001C0240002002400024024026
:100A50000148806870470000180000200248816843
:100A60000278114481607047180000200B4810B5CF
:100A7000016841F400710160016841F48061016026
:100A8000016841F480710160032000F099F80F20A3
:100A900000F006F800F04AF8002010BD003C0240CB
:100AA00030B505461C4887B00024016841F00101BB
:100AB0000160006806A900F00100009001A800F0A4
:100AC00063F900F091F915494000B0FBF1F11548C8
:100AD000134A491E026040F2E732C0E90324C0E92C
:100AE0000114846100F07AFB040012D10D4800F07B
:100AF000A3FB04000DD1192000F034F8102D07D20B
:100B000000222946192000F03BF80748056000E064
:100B1000012407B0204630BD4438024040420F0057
:100B200000000140C40300201C0000200C4882B0DB
:100B3000016841F480410160006800F48040009049
:100B40000748001F016841F08051016000680022E1
:100B500000F0805000900F21901E02B000F010B8FD
:100B600044380240002809DB00F01F0201219140B7
:100B70004009800000F1E020C0F80011704700003B
:100B8000F0B40E4B1B680C46C3F30223C3F10705F8
:100B9000042D00D90425191D072901D2002300E0E6
:100BA000DB1E012606FA05F1491E214099409E40B0
:100BB000761E16403143F0BC01F0FBB80CED00E0AE
:100BC000064900F0070208684FF6FF03184040EAA4
:100BD0000220034A10430860704700000CED00E05B
:100BE0000000FA052DE9F8431748016841F08051EB
:100BF00001600068154F00F08050012600903E64AF
:100C0000FFF726FF05464FF47A78114C05E000BF48
:100C1000FFF71EFF401B40450DD86068C003F7D5A5
:100C20007E64FFF715FF0546464607E0FFF710FF15
:100C3000401BB04202D90320BDE8F88360688003FE
:100C4000F4D50020F8E700004038024000000E42D2
:100C5000007000402DE9F0470E46050065D0DFF832
:100C60001481D8F80000F7B200F00F00B04207D2AC
:100C700088F80070D8F8000000F00F00B04254D19E
:100C800028683D4C810712D5400703D5206840F401
:100C9000E05020602878000703D5206840F46040C9
:100CA00020602068A96820F0F000084320602878C0
:100CB000C0072DD0304968680839012812D00228B1
:100CC00013D0032811D00968890700292DDA21687B
:100CD00021F0030101432160FFF7BAFE814641F292
:100CE000883A0EE009688903EFE709688901ECE7B3
:100CF000FFF7AEFEA0EB0901514502D90320BDE884
:100D0000F0872068696800F00C00B0EB810FEFD12C
:100D1000D8F80010404601F00F01B14207D9077022
:100D2000006800F00F00B04201D00120E7E728780A
:100D3000400705D52068E96820F4E05008432060AA
:100D40002878000706D52068296920F4604040EA29
:100D5000C100206000F058F82168084AC1F303116F
:100D6000515CC8400649086006480068FFF798FED5
:100D70000020C4E7003C0240083802404429000833
:100D8000240000201C0000200F2202600C4A13687F
:100D900003F003034360136803F0F00383601368F8
:100DA00003F4E053C36012684FF4E05303EAD20245
:100DB00002610448006800F00F00086070470000FE
:100DC00008380240003C02400448054900680968B0
:100DD000044AC1F38221515CC840704724000020BE
:100DE0000838024054290008044805490068096889
:100DF000044AC1F34231515CC840704724000020CE
:100E00000838024054290008154810B5006810F051
:100E10000C02144813D01449042A0FD0082A0ED10A
:100E20000F4C241F2268236802F03F025B0207D5A3
:100E30002068C0F38810A0FB010106E0084610BD41
:100E40002168C1F38811A1FB00010023FFF77EFA9E
:100E50002168C1F30141491C4900B0FBF1F010BD0C
:100E6000083802400024F400001BB7002DE9F84FB9
:100E700004006ED02078DFF84C93C007A9F1040578
:100E80004AD009F104000168C1F38101012908D0A9
:100E90000068C0F3810002280AD1D9F8000040029E
:100EA00006D52868800337D560680028E1D033E094
:100EB0006068B0F5803F10D0B0F5A02F286810D042
:100EC00020F480302860286820F480202860606842
:100ED000A8B1FFF7BDFD06460DE0286840F480305C
:100EE000F4E740F480202860F7E700BFFFF7B0FD8B
:100EF000801B642873D828688003F7D50CE0FFF7BF
:100F0000A7FD064605E000BFFFF7A2FD801B642891
:100F1000F0D828688003F7D42078DFF8AC82800707
:100F20004FF0000A3ED5A748001D016811F00C0FD4
:100F300008D00068C0F3810002280BD1D9F8000066
:100F4000400207D42868800716D5E068012800D140
:100F500012E033E1E068B8B10120C8F80000FFF703
:100F600077FD064605E000BFFFF772FD801B0228F3
:100F7000C0D828688007F7D52868216920F0F800D4
:100F800040EAC10028600DE0C8F800A0FFF760FD4E
:100F9000064604E0FFF75CFD801B02281FD8286886
:100FA0008007F7D42078000722D5864F87486169EB
:100FB000703771B101210160FFF74AFD064604E078
:100FC000FFF746FD801B022809D838688007F7D54F
:100FD0000EE0C0F800A0FFF73BFD064605E082E00A
:100FE000FFF736FD801B02287DD838688007F7D4CC
:100FF0002078400768D5DFF8CCB100270BF13C0B17
:10100000DBF80000C0000BD4DBF8001041F0805189
:10101000CBF80010DBF80000012700F080500090B2
:101020006B4E3068C00510D4306840F4807030607A
:10103000FFF70EFD009005E0FFF70AFD0099401A4A
:10104000022850D83068C005F6D55E4EA0686C36D0
:1010500001280FD00528306810D020F00100306042
:10106000306820F004003060A068B8B1FFF7F0FCF1
:1010700000900FE0306840F00100F4E740F0040019
:101080003060F7E7FFF7E4FC0099411A41F288303D
:10109000814266D830688007F4D50EE0FFF7D8FCAF
:1010A000009007E0FFF7D4FC0099411A41F2883024
:1010B000814256D830688007F4D42FB1DBF8001095
:1010C00021F08051CBF80010A069C8B33D49091D3B
:1010D0000968C1F3810102294AD00228504607D08D
:1010E000C8F8600000E03CE0FFF7B2FC04463BE0DB
:1010F0004746C8F86000FFF7ABFC064605E000BFB6
:10110000FFF7A6FC801B02282BD828688001F7D4A3
:10111000D4E907010843A16A2E4A490802EB0141BC
:10112000626A41EA8211084394F82C1040EA016196
:10113000C9F8001001203866FFF78AFC044606E073
:101140003EE000BFFFF784FC001B022809D8286896
:101150008001F7D534E000BFFFF77AFC001B0228BE
:1011600002D90320BDE8F88F28688001F4D427E075
:101170000128F7D0D9F80000E26900F4800191421B
:101180001CD1226A00F03F01914217D147F6C0718D
:10119000626A0140B1EB821F10D1A26A4FF0FF33A7
:1011A00000F4403103EB5202B1EB024F06D194F848
:1011B0002C1000F07060B0EB016F01D00120D1E77E
:1011C0000020CFE70438024000004742800E47422B
:1011D000007000400000FFFF7047704710B504002A
:1011E00003D094F83D0010B107E0012010BD0020AD
:1011F00084F83C00204600F01EF8022084F83D00F0
:10120000211D206800F04AFC012084F8460084F883
:101210003E0084F83F0084F8400084F8410084F8E0
:10122000420084F8430084F8440084F8450084F8C0
:101230003D00002010BD704790F83D10012901D0FD
:1012400001207047022180F83D100168CA6842F011
:101250000102CA6000681149884214D0B0F1804F81
:1012600011D00F4988420ED00E4988420BD00E494A
:10127000884208D00D49884205D00D49884202D0E5
:101280000C49884204D1816801F00701062903D086
:10129000016841F001010160002070470000014039
:1012A0000004004000080040000C00400004014021
:1012B000004001400018004070472DE9F04104460D
:1012C0000068C66805694FF00007A90713D5B10784
:1012D00011D5F91E016101202077206880698007FF
:1012E000204602D0FFF7E8FF04E000F07EF8204639
:1012F00000F07CF82777680716D5700714D52168A9
:101300006FF004000861022020772068806910F4E3
:10131000407F204602D0FFF7CFFF04E000F065F8E1
:10132000204600F063F82777280715D5300713D536
:1013300021686FF008000861042020772068C069E8
:101340008007204602D0FFF7B7FF04E000F04DF819
:10135000204600F04BF82777E80616D5F00614D59E
:1013600021686FF010000861082020772068C069AC
:1013700010F4407F204602D0FFF79EFF04E000F00B
:1013800034F8204600F032F82777E80708D0F00755
:1013900006D021686FF001000861204600F028F8AF
:1013A000280608D5300606D521686FF08000086150
:1013B0002046FFF711FF680608D5700606D521689C
:1013C0006FF040000861204600F01CF8A8060AD51E
:1013D000B00608D521686FF0200008612046BDE8FE
:1013E000F041FFF7FABEBDE8F0817047704700009A
:1013F00000680349884201D1FFF730BB7047000005
:10140000000001407047704770470000F8B5016860
:1014100004460868CA684B6910F00F0F4FF00005CA
:1014200059D003F0010602F49077374365D0C10725
:1014300005D0D10503D5616C41F00101616441071C
:1014400005D5D90703D0616C41F0020161648107C1
:1014500005D5D90703D0616C41F00401616401072F
:1014600007D502F02001314303D0616C41F008013F
:101470006164616C00293AD0800604D5900602D5DB
:10148000204600F0A1FB20684069616CC0F3801029
:10149000090700D460B3204600F06FFB2068406964
:1014A000400621D52068143050E8001F21F040018B
:1014B00040E80012002AF5D1E06BA8B1724901653D
:1014C000E06BFFF798F9002811D0E06B016D01B0D7
:1014D000BDE8F040084783060FD593060DD520469A
:1014E000BDE8F84000F070BB2046FFF78DFFF8BD67
:1014F0002046FFF789FF6564F8BD266B2023012E87
:101500007ED1C6067CD5D6067AD508684868009094
:1015100048694FF0020640064DD5E26B10684068FE
:101520004FF480770004000C3AD0A18D814237D966
:10153000E085D069B8422DD020680C3050E8001FFB
:1015400021F4807140E80012002AF5D1206814309F
:1015500050E8001F21F0010140E80012002AF5D1F7
:101560002068143050E8001F21F0400140E80012CC
:10157000002AF5D184F84230256320680C3050E809
:10158000001F21F0100140E80012002AF5D1E06BA5
:10159000FFF7E8F86663A08DE18D401A81B206E09E
:1015A000A18D8142A8D1D069B842A5D166632046F9
:1015B000FFF729FFF8BDA08DE18D401A81B2E08DC3
:1015C0000028F7D00029F5D020680C3050E8002F13
:1015D00022F4907240E80027002FF5D120681430E3
:1015E00050E8002F22F0010240E80027002FF5D13B
:1015F00084F84230256320680C3050E8002F00E06A
:1016000006E022F0100240E80023002BF3D1CDE7E2
:1016100005062BD5150629D594F841002128C9D1F6
:10162000A068B0F5805F01D12069B0B1206A411C8B
:101630002162216800784860E08C401E0004000CA4
:10164000E084B7D12068C16821F08001C1602068C2
:10165000C16841F04001C160F8BD206A0088C0F354
:1016600008004860206A801C2062E5E74006F3D548
:101670005006F1D5CA68204622F04002CA6084F8BC
:10168000413000F09CF8F8BD6D1B000870B50400F7
:1016900004D094F84100002510B106E0012070BD8F
:1016A00084F84050204600F023F8242084F84100BC
:1016B0002068C16821F40051C160204600F0E6FABC
:1016C0002068016921F4904101612068416921F09D
:1016D0002A0141612068C16841F40051C16065641C
:1016E000202084F8410084F842006563002070BD2A
:1016F00070B586B0044614216846FEF7D0FE2A4E27
:10170000226800212948022303240725B24222D15E
:10171000264A1432166846F010061660126802F067
:1017200010020592026842F002020260006802AAFA
:1017300000F00200059082E83200C020CDE90003ED
:1017400069461B48FFF76AF8002205212520FFF7AC
:1017500017FA252024E0174EB24223D1134A103243
:10176000166846F400361660126802F400320592DC
:10177000026842F008020260006802AA00F0080055
:10178000059082E832006020CDE9000369460A48EE
:10179000FFF744F8002205212620FFF7F1F9262063
:1017A000FFF7E0F906B070BD00100140303802408C
:1017B0000004024000440040000C024070477047A3
:1017C000FEE700000F4810B50D490160052141609A
:1017D00000214FF400328160C0E9031252014261DE
:1017E0000176012242768176C17601774177FEF754
:1017F000BEFE002803D0BDE81040FEF7B6BE10BD07
:1018000000640040E40200200F4810B50D4901605B
:101810000521416000214FF400328160C0E90312CC
:10182000520142610176012242768176C1760177CA
:101830004177FEF79CFE002803D0BDE81040FEF77C
:1018400094BE10BD006800400C03002010B5A4B089
:101850001C221C496846FEF7F0FD0021684600F096
:10186000DDFA194C17491C2220601C3107A8FEF72D
:10187000E4FD002107A800F0D1FA124960601C22A3
:1018800038310EA8FEF7D9FD00210EA800F0C6FAE7
:101890000C49A0601C22543115A8FEF7CEFD002192
:1018A00015A800F0BBFA0749E0601C2270311CA8A3
:1018B000FEF7C3FD00211CA800F0B0FA206124B09F
:1018C00010BD0000B828000800000020114808B52D
:1018D000016841F001010160016801F0010100911E
:1018E000016841F002010160016801F0020100910C
:1018F000016841F008010160016801F008010091F0
:10190000016841F080010160006800F080000090F3
:1019100008BD0000303802400C4810B50A4901608B
:101920004FF4E1314160002181600C22C160C0E9C7
:1019300004128161C161FFF7A9FE002803D0BDE850
:101940001040FEF712BE10BD00100140340300200D
:101950000C4810B50A4901604FF4E13141600021A3
:1019600081600C22C160C0E904128161C161FFF78E
:101970008DFE002803D0BDE81040FEF7F6BD10BD77
:10198000004400407C030020FEE7FEE7012000F059
:1019900039FAFBE7012000F035FAFBE7012000F0FF
:1019A00031FAFBE7012000F02DFAFBE7012000F0FF
:1019B00029FAFBE710B5502080F31188BFF34F8F51
:1019C000BFF36F8F00F0AAFE18B104494FF08050AA
:1019D0000860002080F3118810BD000004ED00E0D5
:1019E00030B593B030216846FEF759FD14210CA89C
:1019F000FEF755FD20480025016841F08051016047
:101A0000006800F0805011901C48016841F440418A
:101A100001600068022400F4404011900120009011
:101A2000000401908001CDE9064006200890B42012
:101A3000CDE9090404200B906846FFF717FA08B1B6
:101A400072B6FEE7FFF7CEF808B172B6FEE70CA952
:101A50000F2081E831004FF4A0500F904FF48050D8
:101A6000109005210CA8FFF7F5F8002801D072B6F8
:101A7000FEE713B030BD0000403802400070004067
:101A80000248016841F470010160704788ED00E090
:101A90000148FFF712BC0000C4030020F0B5026843
:101AA000274B284D284E294F294C4FF0804C984207
:101AB00009D0604507D0A84205D0B04203D0B84253
:101AC00001D0A04204D122F0700E4A6842EA0E0210
:101AD00098421BD0604519D0A84217D0B04215D00B
:101AE000B84213D0A04211D01A4DA8420ED01A4DC0
:101AF000A8420BD0194DA84208D0194DA84205D0D4
:101B0000184DA84202D0184DA84203D122F44075C6
:101B1000CA682A434D6922F080022A438D68C56253
:101B20000D688562984201D0A04201D10969016324
:101B3000016841F004010160012141610260F0BDD2
:101B4000000001400004004000080040000C00407C
:101B500000040140004001400044014000480140B1
:101B600000180040001C00400020004010B5806BB1
:101B70000021C185FFF748FC10BD01680C3151E818
:101B8000002F22F4907241E80023002BF5D1016868
:101B9000143151E8002F22F0010241E80023002B0C
:101BA000F5D1016B012909D101680C3151E8002FF1
:101BB00022F0100241E80023002BF5D1202180F80B
:101BC000421000210163704708B590F842102229A5
:101BD00001D0022008BD82684FF480539A4201D19F
:101BE000016921B1816A9A421BD04AB10AE00268B8
:101BF000816A5268C2F308020A80816A891C08E07F
:101C0000026972B10268526802F07F020A70816A4A
:101C1000491C8162C18D491E0904090CC18503D08C
:101C20001BE002685268F1E70168CA6822F02002EE
:101C3000CA600168CA6822F48072CA6001684A6991
:101C400022F001024A61202180F842100021416304
:101C5000026B012A03D0FFF7B1FD002008BD01632C
:101C600001680C3151E8002F22F0100241E80023F6
:101C7000002BF5D101680A68D20602D50A684968C6
:101C80000091818DFFF7BFFBE7E7000070B50446C8
:101C900000680169E26821F4405111430161216942
:101CA000A068E26908436169114308432168CA6872
:101CB00049F20C639A430243CA6020684169A269F1
:101CC00021F440711143416131492068884202D0BA
:101CD0003049884202D1FFF787F801E0FFF774F836
:101CE000E2690023192164253226B2F5004F6268AB
:101CF00028D0A0FB0101930F9200FEF727FB0146BD
:101D0000B0FBF5F06FF01802504301EB800006EBDA
:101D10000010B0FBF5F000F0F002B1FBF5F002EBC3
:101D20000012B1FBF5F06FF01803584301EB80008F
:101D300006EB0010B0FBF5F000F00F002168104436
:101D4000886070BDA0FB010192185B41FEF7FEFAAE
:101D50000146B0FBF5F00201B1FBF5F06FF018039E
:101D6000584301EB800006EBC000B0FBF5F000F03B
:101D7000F80002EB4002B1FBF5F0584301EB8000A4
:101D800006EBC000B0FBF5F000F00700D6E700005E
:101D900000100140001401400148FFF737BB00006C
:101DA000340300200148FFF731BB00007C03002012
:101DB000FEE70907090E002804DB00F1E02080F8A7
:101DC0000014704700F00F0000F1E02080F8141DAF
:101DD0007047FEF74BFEFFF703FEFFF777FDFFF7B7
:101DE000F1FCFFF711FDFFF797FDFFF7B1FDFFF7DE
:101DF0002DFD00F00EF8FEE701460020842900D0FA
:101E0000C81C704710B500B9012000F023FB00206A
:101E100010BD10B500F044FB002010BD7FB50D468D
:101E200004464169B0F9080081B1A16971B1FFF7B9
:101E3000E3FFD4E905128DE80700D4E900102B4632
:101E4000226900F040FC039004B070BDFFF7D4FF9E
:101E500003A9CDE90001208A2B4682B2D4E9001003
:101E600000F004FC012801D00020EDE70398EBE727
:101E70002DE9F041184C0F460546E6682068001D24
:101E800000F020FA38B9206890F82C100120884022
:101E9000216981432161681C07D137B12168BDE800
:101EA000F0410E48091D00F051BA20683544B54292
:101EB0004560216805D2A06BBDE8F041091D00F026
:101EC0002DBA606B091D00F029FAA06A854200D284
:101ED000A562BDE8F081000028000020E804002091
:101EE0002DE9F041054600F03DFA2E4CA068401C5B
:101EF000A06020682C4F10B1606940B32DE02560D0
:101F0000A068012829D1002606EB860007EB800097
:101F100000F0F6F9761C072EF6D323488C3000F03B
:101F2000EFF92148A03000F0EBF91F48B43000F081
:101F3000E7F91D48C83000F0E3F91B48DC3000F039
:101F4000DFF919488C3060631430A06305E0206825
:101F5000E96AC06A884200D82560606A401C6062F5
:101F6000E96A0120226988401043206101EB810069
:101F700007EB8000291D00F0E9F900F013FA606911
:101F800000280CD02068E96AC06A884207D2074955
:101F90004FF080500860BFF34F8FBFF36F8FBDE8E5
:101FA000F0810000280000200C04002004ED00E077
:101FB00010B5044690F8510058B101280CD0022801
:101FC0000FD0502080F31188BFF34F8FBFF36F8F76
:101FD000FEE7206B00F0FAF92046BDE8104000F063
:101FE000F5B910BD10484FF47051420706D0C01D1E
:101FF0000D4920F00700411AC1F570510B4A00232A
:102000000144C2E900030839183A21F007011160C0
:102010004B600B600B1AC0E9001393604FF0004057
:102020005360506170470000FC0400207C000020D9
:10203000144E154CA6F1C8074FF08058DFF84C90AD
:1020400012E000BF00F08EF9F068C568281D00F0AE
:1020500039F9A068401EA0606068401E606000F012
:10206000A1F92846FFF7A4FF60680028EAD1386884
:102070000128F9D9C9F80080BFF34F8FBFF36F8FE4
:10208000F2E70000D40400202800002004ED00E066
:102090002DE9F0479A46DDE9098481466FF0030394
:1020A000206B03EB82021044089E20F0070778079C
:1020B00007D0502080F31188BFF34F8FBFF36F8F8D
:1020C000FEE7002561B1002023180A5C83F8342064
:1020D0000A5C12B1401C1028F6D384F8435001E08A
:1020E00084F83450072E00D30626E662C4E9116551
:1020F000201D00F010F904F1180000F00CF9246123
:10210000C6F107006462A061E56484F8505052464D
:102110004946384600F0C0F82060B8F1000F01D001
:10212000C8F80040BDE8F08730B5114900E011461D
:102130000A688242FBD34B685C18844203D1406832
:1021400018444860084643681C18944209D1084C5A
:10215000183C2468A24209D052681A4442600A68B6
:1021600012680260814200D0086030BD0460F9E767
:102170007C0000200648416B096829B1416BC968A1
:10218000C9684968816270474FF0FF31FAE7000083
:102190002800002008484068401C4FF0500080F3A1
:1021A000118804D0BFF34F8FBFF36F8FFEE7BFF3EB
:1021B0004F8FBFF36F8FFEE7840000202DE9F041C1
:1021C0000546002700F0A2F9324E306808B9FFF743
:1021D00009FF706905424ED1C5B3083568070ED0B6
:1021E00005F00700C0F108000544680707D050203B
:1021F00080F31188BFF34F8FBFF36F8FFEE72DB3CE
:102200007068854237D82348183001460C6801E0D1
:1022100020460C466168A94202D221680029F7D104
:1022200031688C4227D007682168016060680837F0
:10223000411B10290FD96019420708D0502080F3A4
:102240001188BFF34F8FBFF36F8FFEE713E041603C
:102250006560FFF769FF61687068401A7060B26876
:10226000904200D2B060706901430020C4E90001CF
:10227000F068401CF06000F0B7FA780707D05020F3
:1022800080F31188BFF34F8FBFF36F8FFEE738469F
:10229000BDE8F0816400002010B5031F4FF080748A
:1022A0001C601B1F21F001011960191F044B0B60FA
:1022B00014390A60091F6FF0020244380A6010BD29
:1022C00095210008D0E9013201699A60D0E9012323
:1022D0005A604A68824201D182684A6000220261E3
:1022E0000868401E0860086870470000034B0360E0
:1022F00003F15400086080201060704790000020B7
:1023000000F108014FF0FF32C0E90112C160016124
:1023100000210160704700210161704730B50B68F2
:102320005A1C02D000F1080202E0026904E02246D1
:10233000546825689D42FAD953684B6099608A6059
:10234000516008610168491C016030BD42684A6003
:1023500093688B6093685960916008610168491CBB
:1023600001607047502080F31188BFF34F8FBFF397
:102370006F8F0A494868401C486001280CD1084802
:10238000006810F0FF0F07D0502080F31188BFF3D2
:102390004F8FBFF36F8FFEE770470000840000206F
:1023A00004ED00E00849486828B1401E486001D1AA
:1023B00080F311887047502080F31188BFF34F8F4E
:1023C000BFF36F8FFEE700008400002070B5002887
:1023D0002AD0164DA0F1080460686969084207D147
:1023E000502080F31188BFF34F8FBFF36F8FFEE74C
:1023F00022683AB1502080F31188BFF34F8FBFF3AA
:102400006F8FFEE78843606000F080F8606869685D
:10241000084468602046FFF787FE2869401C286151
:10242000BDE8704000F0E0B970BD0000640000201D
:102430004FF0E02000210161816105494FF47A727B
:102440000968B1FBF2F1491E416107210161704742
:102450002400002010B5020014D00F48006B38B1E2
:10246000502080F31188BFF34F8FBFF36F8FFEE7CB
:1024700000F04CF800211046FFF7FAFC00F0B4F928
:10248000002807D105494FF080500860BFF34F8FF7
:10249000BFF36F8F10BD00002800002004ED00E0A6
:1024A00010B586B00024039405AA04A903A80494D7
:1024B000FFF71CFFDDE903010094CDE901100023C3
:1024C0000EA11048059A00F0FEF80F490028C862D6
:1024D00011D0502080F31188BFF34F8FBFF36F8F5F
:1024E0004FF0FF30886201204861CC6006B0BDE843
:1024F000104000F041B806B010BD000049444C4502
:102500000000000031200008280000200248016B74
:10251000491C016370470000280000201448016B2B
:1025200011B10121C16170470021C1610169B1FA96
:1025300081F1C1F11F0101EB81020E4951F82230F6
:102540006BB101EB820101F108034A6852684A60ED
:102550009A4201D152684A60D168016070475020A8
:1025600080F31188BFF34F8FBFF36F8FFEE700003A
:10257000280000200C0400201CB537480168374AA9
:10258000914207D1502080F31188BFF34F8FBFF3E2
:102590006F8FFEE700683149491E884207D15020FD
:1025A00080F31188BFF34F8FBFF36F8FFEE72C4985
:1025B00008780190FF20087008788DF800009DF8D9
:1025C00000009DF8002000F0F000904207D050205D
:1025D00080F31188BFF34F8FBFF36F8FFEE79DF835
:1025E0000000204C00F0500020700720A06005E0A3
:1025F0009DF8002052008DF80020401E9DF800201C
:102600001206F5D4A060032807D0502080F311886B
:10261000BFF34F8FBFF36F8FFEE74FF44070A060A2
:10262000019808700C482030016841F47001016085
:10263000016841F070410160FFF7FAFE0020606020
:10264000FDF728FE0848016841F040410160FDF7B0
:102650000DFE00201CBD000000ED00E071C20F4126
:1026600000E400E08400002034EF00E02DE9FF5F8B
:102670008346DDE90E87994616468A469000FFF7A5
:102680009DFD05001CD05420FFF798FD040014D0D8
:102690000020256384F85100CDE90240CDE9008790
:1026A0004B46324651465846FFF7F2FC2046FFF7AC
:1026B00017FC012004B0BDE8F09F2846FFF786FE16
:1026C0004FF0FF30F6E7F0B585B0DDE90B640A9D09
:1026D000A6B1DCB1542700972663022684F8516026
:1026E000002604AFCDE90246CDE90057FFF7D0FC44
:1026F0002046FFF7F5FB049805B0F0BD502080F3AD
:102700001188BFF34F8FBFF36F8FFEE7502080F328
:102710001188BFF34F8FBFF36F8FFEE72DE9F041B4
:102720002F4C0026206B28B1A069401CA0613046C8
:10273000BDE8F081E5686D1CE56013D1606B006851
:1027400038B1502080F31188BFF34F8FBFF36F8FE4
:10275000FEE7606BA16B6163A063206A401C20628E
:10276000FFF708FDA06ADFF87C80854209D3606B23
:102770000068A0B1606BC068C7687868854211D2F4
:10278000A0622068C06A00EB800158F8210001288F
:1027900000D90126E0690028C9D00126C7E74FF01B
:1027A000FF30EDE7381DFFF78DFDB86A18B107F16E
:1027B0001800FFF787FDF96A01202269884010435D
:1027C000206101EB810108EB8100391DFFF7BEFD9F
:1027D000F86A2168C96A8842C9D30126C7E70000A0
:1027E000280000200C0400202DE9F0472C4D002487
:1027F0002746286B38B1FFF7B5FD286B401E2863CC
:10280000286B40B146E0502080F31188BFF34F8F12
:10281000BFF36F8FFEE7A968224E0120D1B3A6F166
:10282000B40980463068E8B1F068C46804F1180063
:10283000FFF748FD201DFFF745FDE06A2A6908FA09
:1028400000F11143296100EB800109EB8100211D9A
:10285000FFF77CFDE06A2968C96A8842E2D3C5F8BF
:102860001C80DFE70CB1FFF785FCAC6944B146463C
:10287000FFF754FF00B1EE61641EF9D10020A8619A
:10288000E86938B10849012738070860BFF34F8F5E
:10289000BFF36F8FFFF786FD3846BDE8F087000075
:1028A00028000020C004002004ED00E04FF040703C
:1028B000E1EE100A704700005C2900088D1900083D
:1028C0000000000000000000800000000000000088
:1028D000000000008C290008AD190008030000006A
:1028E0000000000080000000000000000000000068
:1028F0006829000895190008030000000000000086
:102900008000000000000000000000008029000896
:10291000A51900080300000000000000800000006E
:102920000000000000000000742900089D19000844
:102930000200000000000000800000000000000015
:10294000000000000000000000000000010203047D
:1029500006070809000000000102030464656661BF
:10296000756C745461736B0044656C74615F63745F
:10297000726C000052656D6F74655F6374726C00F9
:10298000436C69636B5F6374726C000043686173CE
:102990007369735F6374726C00000000BC290008E7
:1029A0000000002090000000E80100084C2A000808
:1029B00090000020D0460000040200080000000043
:1029C0000000000000000000000000000000000007
:1029D00000000000010000001000000000000000E6
:1029E0000024F400000000000000000000000000CF
:1029F00000000000000000000000000000000000D7
:102A000000000000000000000000000000000000C6
:102A100000000000000000000000000000000000B6
:102A200000000000000000000000000000000000A6
:102A30000000000000000000000000000000000096
:0C2A400000000000AAAAAAAA00000000E2
:04000005080001AD41
:00000001FF
